{
  "contractName": "Hospital",
  "abi": [
    {
      "anonymous": false,
      "inputs": [
        {
          "indexed": false,
          "name": "doctor",
          "type": "address"
        },
        {
          "indexed": false,
          "name": "patient",
          "type": "address"
        }
      ],
      "name": "randomEvent",
      "type": "event"
    },
    {
      "constant": false,
      "inputs": [
        {
          "name": "user",
          "type": "string"
        }
      ],
      "name": "entityRegister",
      "outputs": [],
      "payable": false,
      "stateMutability": "nonpayable",
      "type": "function"
    },
    {
      "constant": true,
      "inputs": [],
      "name": "checkRegistration",
      "outputs": [
        {
          "name": "",
          "type": "uint256"
        }
      ],
      "payable": false,
      "stateMutability": "view",
      "type": "function"
    },
    {
      "constant": false,
      "inputs": [
        {
          "name": "doctor",
          "type": "address"
        }
      ],
      "name": "grantAccess",
      "outputs": [],
      "payable": false,
      "stateMutability": "nonpayable",
      "type": "function"
    },
    {
      "constant": false,
      "inputs": [
        {
          "name": "user",
          "type": "address"
        }
      ],
      "name": "revokeAccess",
      "outputs": [],
      "payable": false,
      "stateMutability": "nonpayable",
      "type": "function"
    },
    {
      "constant": false,
      "inputs": [
        {
          "name": "receiver",
          "type": "address"
        },
        {
          "name": "amount",
          "type": "uint256"
        }
      ],
      "name": "sendPayment",
      "outputs": [],
      "payable": false,
      "stateMutability": "nonpayable",
      "type": "function"
    },
    {
      "constant": true,
      "inputs": [],
      "name": "getBalance",
      "outputs": [
        {
          "name": "",
          "type": "uint256"
        }
      ],
      "payable": false,
      "stateMutability": "view",
      "type": "function"
    },
    {
      "constant": true,
      "inputs": [],
      "name": "getRole",
      "outputs": [
        {
          "name": "",
          "type": "string"
        }
      ],
      "payable": false,
      "stateMutability": "view",
      "type": "function"
    },
    {
      "constant": true,
      "inputs": [
        {
          "name": "x",
          "type": "address"
        }
      ],
      "name": "didIGaveRights",
      "outputs": [
        {
          "name": "",
          "type": "bool"
        }
      ],
      "payable": false,
      "stateMutability": "view",
      "type": "function"
    },
    {
      "constant": true,
      "inputs": [
        {
          "name": "x",
          "type": "address"
        }
      ],
      "name": "doIHaveRights",
      "outputs": [
        {
          "name": "",
          "type": "bool"
        }
      ],
      "payable": false,
      "stateMutability": "view",
      "type": "function"
    },
    {
      "constant": false,
      "inputs": [
        {
          "name": "doctor",
          "type": "address"
        },
        {
          "name": "patient",
          "type": "address"
        }
      ],
      "name": "helperEvent",
      "outputs": [],
      "payable": false,
      "stateMutability": "nonpayable",
      "type": "function"
    }
  ],
  "bytecode": "0x6060604052341561000f57600080fd5b610d0c8061001e6000396000f3006060604052600436106100a4576000357c0100000000000000000000000000000000000000000000000000000000900463ffffffff1680630ae5e739146100a957806312065fe0146100e257806385e685311461010b578063935f4c1814610144578063d6a5c18c14610186578063e3dc6077146101de578063f16e05701461022f578063fd1b21001461028c578063fde08174146102b5578063fec376b814610343575b600080fd5b34156100b457600080fd5b6100e0600480803573ffffffffffffffffffffffffffffffffffffffff16906020019091905050610394565b005b34156100ed57600080fd5b6100f561049f565b6040518082815260200191505060405180910390f35b341561011657600080fd5b610142600480803573ffffffffffffffffffffffffffffffffffffffff169060200190919050506104e8565b005b341561014f57600080fd5b610184600480803573ffffffffffffffffffffffffffffffffffffffff169060200190919080359060200190919050506105f3565b005b341561019157600080fd5b6101dc600480803573ffffffffffffffffffffffffffffffffffffffff1690602001909190803573ffffffffffffffffffffffffffffffffffffffff169060200190919050506106e5565b005b34156101e957600080fd5b610215600480803573ffffffffffffffffffffffffffffffffffffffff16906020019091905050610780565b604051808215151515815260200191505060405180910390f35b341561023a57600080fd5b61028a600480803590602001908201803590602001908080601f0160208091040260200160405190810160405280939291908181526020018383808284378201915050505050509190505061081c565b005b341561029757600080fd5b61029f610a5b565b6040518082815260200191505060405180910390f35b34156102c057600080fd5b6102c8610aa4565b6040518080602001828103825283818151815260200191508051906020019080838360005b838110156103085780820151818401526020810190506102ed565b50505050905090810190601f1680156103355780820380516001836020036101000a031916815260200191505b509250505060405180910390f35b341561034e57600080fd5b61037a600480803573ffffffffffffffffffffffffffffffffffffffff16906020019091905050610b8b565b604051808215151515815260200191505060405180910390f35b60016000803373ffffffffffffffffffffffffffffffffffffffff1673ffffffffffffffffffffffffffffffffffffffff16815260200190815260200160002060030160008373ffffffffffffffffffffffffffffffffffffffff1673ffffffffffffffffffffffffffffffffffffffff1681526020019081526020016000208190555060016000808373ffffffffffffffffffffffffffffffffffffffff1673ffffffffffffffffffffffffffffffffffffffff16815260200190815260200160002060040160003373ffffffffffffffffffffffffffffffffffffffff1673ffffffffffffffffffffffffffffffffffffffff1681526020019081526020016000208190555050565b60008060003373ffffffffffffffffffffffffffffffffffffffff1673ffffffffffffffffffffffffffffffffffffffff16815260200190815260200160002060010154905090565b60026000803373ffffffffffffffffffffffffffffffffffffffff1673ffffffffffffffffffffffffffffffffffffffff16815260200190815260200160002060030160008373ffffffffffffffffffffffffffffffffffffffff1673ffffffffffffffffffffffffffffffffffffffff1681526020019081526020016000208190555060026000808373ffffffffffffffffffffffffffffffffffffffff1673ffffffffffffffffffffffffffffffffffffffff16815260200190815260200160002060040160003373ffffffffffffffffffffffffffffffffffffffff1673ffffffffffffffffffffffffffffffffffffffff1681526020019081526020016000208190555050565b806000803373ffffffffffffffffffffffffffffffffffffffff1673ffffffffffffffffffffffffffffffffffffffff168152602001908152602001600020600101541015151561064357600080fd5b806000803373ffffffffffffffffffffffffffffffffffffffff1673ffffffffffffffffffffffffffffffffffffffff16815260200190815260200160002060010160008282540392505081905550806000808473ffffffffffffffffffffffffffffffffffffffff1673ffffffffffffffffffffffffffffffffffffffff168152602001908152602001600020600101600082825401925050819055505050565b7f99393f634e9b7a92d938bbf4bc21c77ef57a7426b620bba003eabc9701b54aa38282604051808373ffffffffffffffffffffffffffffffffffffffff1673ffffffffffffffffffffffffffffffffffffffff1681526020018273ffffffffffffffffffffffffffffffffffffffff1673ffffffffffffffffffffffffffffffffffffffff1681526020019250505060405180910390a15050565b600060016000803373ffffffffffffffffffffffffffffffffffffffff1673ffffffffffffffffffffffffffffffffffffffff16815260200190815260200160002060030160008473ffffffffffffffffffffffffffffffffffffffff1673ffffffffffffffffffffffffffffffffffffffff1681526020019081526020016000205414156108125760019050610817565b600090505b919050565b60008060003373ffffffffffffffffffffffffffffffffffffffff1673ffffffffffffffffffffffffffffffffffffffff1681526020019081526020016000206002015414151561086c57600080fd5b60016000803373ffffffffffffffffffffffffffffffffffffffff1673ffffffffffffffffffffffffffffffffffffffff16815260200190815260200160002060020181905550806000803373ffffffffffffffffffffffffffffffffffffffff1673ffffffffffffffffffffffffffffffffffffffff1681526020019081526020016000206000019080519060200190610908929190610c27565b50600a6000803373ffffffffffffffffffffffffffffffffffffffff1673ffffffffffffffffffffffffffffffffffffffff1681526020019081526020016000206001018190555060016000803373ffffffffffffffffffffffffffffffffffffffff1673ffffffffffffffffffffffffffffffffffffffff16815260200190815260200160002060030160003373ffffffffffffffffffffffffffffffffffffffff1673ffffffffffffffffffffffffffffffffffffffff1681526020019081526020016000208190555060016000803373ffffffffffffffffffffffffffffffffffffffff1673ffffffffffffffffffffffffffffffffffffffff16815260200190815260200160002060040160003373ffffffffffffffffffffffffffffffffffffffff1673ffffffffffffffffffffffffffffffffffffffff1681526020019081526020016000208190555050565b60008060003373ffffffffffffffffffffffffffffffffffffffff1673ffffffffffffffffffffffffffffffffffffffff16815260200190815260200160002060020154905090565b610aac610ca7565b6000803373ffffffffffffffffffffffffffffffffffffffff1673ffffffffffffffffffffffffffffffffffffffff1681526020019081526020016000206000018054600181600116156101000203166002900480601f016020809104026020016040519081016040528092919081815260200182805460018160011615610100020316600290048015610b815780601f10610b5657610100808354040283529160200191610b81565b820191906000526020600020905b815481529060010190602001808311610b6457829003601f168201915b5050505050905090565b600060016000803373ffffffffffffffffffffffffffffffffffffffff1673ffffffffffffffffffffffffffffffffffffffff16815260200190815260200160002060040160008473ffffffffffffffffffffffffffffffffffffffff1673ffffffffffffffffffffffffffffffffffffffff168152602001908152602001600020541415610c1d5760019050610c22565b600090505b919050565b828054600181600116156101000203166002900490600052602060002090601f016020900481019282601f10610c6857805160ff1916838001178555610c96565b82800160010185558215610c96579182015b82811115610c95578251825591602001919060010190610c7a565b5b509050610ca39190610cbb565b5090565b602060405190810160405280600081525090565b610cdd91905b80821115610cd9576000816000905550600101610cc1565b5090565b905600a165627a7a7230582039af018d6e681cfd2b4da871da97d253b2c1812e572ad0ec6db981d457daa61c0029",
  "source": "pragma solidity ^0.4.17;\n\ncontract Hospital {\n    \n    struct Entity {\n        string Role;\n        uint Balance;\n        uint registered;\n        mapping (address => uint) myReaders;\n        mapping (address => uint) icanRead;\n    }\n    \n    mapping (address => Entity) private allParticipants;\n    \n    event randomEvent(address doctor, address patient);\n    \n    function entityRegister(string user) public{\n        // check if a user has been registered\n        require(allParticipants[msg.sender].registered == 0);\n        allParticipants[msg.sender].registered = 1;\n        allParticipants[msg.sender].Role = user;\n        allParticipants[msg.sender].Balance = 10;\n        allParticipants[msg.sender].myReaders[msg.sender] = 1;\n        allParticipants[msg.sender].icanRead[msg.sender] = 1;\n        //an event maybe RegisterParticipant(msg.sender, user);\n    }\n    \n    // modifier avoidDuplicate {\n    //     // require(user=='Doctor' || user=='Patient' || user=='Pharmacy' || user=='Insurance');\n    //     require(allParticipants[msg.sender].myReaders[msg.sender] == 0);\n    //     _;\n    // }\n    \n    function checkRegistration() public view returns(uint) {\n        return allParticipants[msg.sender].registered;\n    }\n\n    function grantAccess(address doctor) public {\n        allParticipants[msg.sender].myReaders[doctor] = 1;\n        allParticipants[doctor].icanRead[msg.sender] = 1;\n    }\n    \n    function revokeAccess(address user) public{\n        allParticipants[msg.sender].myReaders[user] = 2;\n        allParticipants[user].icanRead[msg.sender] = 2;\n    }\n    \n\n    function sendPayment(address receiver, uint amount) public {\n        require(allParticipants[msg.sender].Balance >= amount);\n        allParticipants[msg.sender].Balance -= amount;\n        allParticipants[receiver].Balance += amount;\n    }\n    \n    // function requestPayment(address from, uint amount) public {\n    //     // we could use event to fire a payment request\n    //     // PaymentRequested(from, msg.sender, amount);\n    // }\n    \n    function getBalance() public view returns(uint){\n        return allParticipants[msg.sender].Balance;\n    }\n    \n    function getRole() public view returns(string){\n        return allParticipants[msg.sender].Role;\n    }\n    \n    function didIGaveRights(address x) public view returns(bool){\n        if(allParticipants[msg.sender].myReaders[x] == 1){\n            return true;\n        }else {\n            return false;\n        }\n    }\n\n    function doIHaveRights(address x) public view returns(bool){\n        if(allParticipants[msg.sender].icanRead[x] == 1){\n            return true;\n        }else {\n            return false;\n        }\n    }\n\n    function helperEvent(address doctor, address patient) public {\n        randomEvent(doctor, patient);\n        return;\n    }\n}\n",
  "sourcePath": "/home/ftalem/hospital/interoperable-blockchain/contracts/Hospital.sol",
  "compiler": {
    "name": "solc",
    "version": "0.4.19+commit.c4cbbb05.Emscripten.clang"
  },
  "schemaVersion": "2.0.0",
  "updatedAt": "2018-05-12T17:53:49.960Z"
}